:100000000C942A000C9447000C9447000C94470071
:100010000C9447000C9447000C9447000C94470044
:100020000C9447000C9447000C9447000C94470034
:100030000C9447000C9447000C9447000C94470024
:100040000C9447000C9447000C9447000C94470014
:100050000C94470011241FBECFE5D8E0DEBFCDBF12
:1000600011E0A0E6B0E0E2E4F2E402C005900D92F7
:10007000AA35B107D9F711E0AAE5B1E001C01D9298
:10008000A236B107E1F70E941A200C941F210C94AC
:100090000000EF92FF920F931F937B018C0120E0F1
:1000A00030E040E05FE40E94490388238CF0C801FF
:1000B000B70120E030E040E05FE40E94C1010E940F
:1000C000A9039B01AC01205030404040504806C07D
:1000D000C801B7010E94A9039B01AC01B901CA0183
:1000E0001F910F91FF90EF900895A0E0B0E0EBE733
:1000F000F0E00C94DF20DC012B01FA019C9192309E
:1001000008F439C1EB018881823008F433C194309E
:1001100069F4843009F02FC111969C91119789815F
:10012000981709F428C1A7E3B1E025C1843009F488
:1001300021C18230A9F4923009F01DC19A01AD01AC
:1001400088E0EA010990AE01E90109929E0181501F
:10015000C1F7E201898111969C918923818308C1AD
:10016000923009F407C112962D903C901397EB0141
:100170008A819B811496AD90BD90CD90DC901797AD
:10018000EC80FD800E811F819101281B390BB90184
:1001900037FF04C066277727621B730B6032710537
:1001A0000CF061C0121613066CF537014801062EDB
:1001B00004C096948794779467940A94D2F721E0C8
:1001C00030E040E050E004C0220F331F441F551FB1
:1001D0006A95D2F721503040404050402E213F21B7
:1001E00040235123211531054105510521F021E01E
:1001F00030E040E050E079018A01E628F72808293C
:1002000019293CC0232BD1F1260E371E350146019A
:10021000062E04C096948794779467940A94D2F734
:1002200021E030E040E050E004C0220F331F441FC3
:10023000551F6A95D2F721503040404050402A2146
:100240003B214C215D21211531054105510521F04E
:1002500021E030E040E050E059016A01A628B728CB
:10026000C828D9280BC0821593052CF01C01AA249C
:10027000BB24650103C0EE24FF24870111969C91E5
:10028000D20111968C91981709F445C0992339F041
:10029000A80197012A193B094C095D0906C0A6016E
:1002A00095012E193F09400B510B57FD08C01182D3
:1002B0003382228224833583468357831DC081E0A5
:1002C00081833382228288279927DC01821B930B4A
:1002D000A40BB50B84839583A683B7830DC0220F2F
:1002E000331F441F551F24833583468357838281E0
:1002F000938101979383828324813581468157813D
:10030000DA01C9010197A109B1098F5F9F4FAF4F72
:10031000BF4328F30BC0918333822282EA0CFB1C7B
:100320000C1D1D1DE482F5820683178383E0808304
:10033000248135814681578157FF1AC0C901AA27F8
:1003400097FDA095BA2F81709070A070B0705695EF
:10035000479537952795822B932BA42BB52B848318
:100360009583A683B7838281938101969383828349
:10037000DF0101C0D201CD01CDB7DEB7E2E10C94BF
:10038000FB20A0E2B0E0E7ECF1E00C94EB20698305
:100390007A838B839C832D833E834F835887E9E048
:1003A000EE2EF12CEC0EFD1ECE010196B7010E943F
:1003B000D2048E010F5E1F4FCE010596B8010E9438
:1003C000D2048A8991E089278A8BC701B801AE01DE
:1003D000475E5F4F0E9475000E94FD03A096E6E015
:1003E0000C940721A0E2B0E0E8EFF1E00C94EB20E0
:1003F00069837A838B839C832D833E834F835887C5
:10040000F9E0EF2EF12CEC0EFD1ECE010196B701A6
:100410000E94D2048E010F5E1F4FCE010596B801D7
:100420000E94D204C701B801AE01475E5F4F0E942F
:1004300075000E94FD03A096E6E00C940721A0E25F
:10044000B0E0E5E2F2E00C94DF2069837A838B83ED
:100450009C832D833E834F835887CE010196BE0136
:10046000675F7F4F0E94D204CE010596BE016F5E8A
:100470007F4F0E94D2049985923088F0898982301A
:10048000C8F0943019F4823051F404C0843029F457
:10049000923081F487E391E0C6C0923049F420E0C5
:1004A0009A858A89981321E02A87CE010996BBC0D4
:1004B000823049F420E09A858A89981321E02A8BBA
:1004C000CE014196B0C02D843E844F8458886D88FB
:1004D0007E888F88988CEE24FF248701AA24BB2471
:1004E000650140E050E060E070E0E0E0F0E0C10174
:1004F00081709070892BE9F0E60CF71C081D191D1E
:100500009A01AB012A0D3B1D4C1D5D1D80E090E062
:10051000A0E0B0E0E614F7040805190520F481E036
:1005200090E0A0E0B0E0BA01A901480F591F6A1F8E
:100530007B1FAA0CBB1CCC1CDD1C97FE08C081E0F5
:1005400090E0A0E0B0E0A82AB92ACA2ADB2A3196B6
:10055000E032F10549F0660C771C881C991C569412
:10056000479437942794C3CFFA85EA892B893C892D
:100570008B859C85280F391F2E5F3F4F17C0CA01FE
:1005800081709070892B61F016950795F794E79428
:1005900080E090E0A0E0B0E8E82AF92A0A2B1B2BC3
:1005A00076956795579547952F5F3F4F77FDE7CF36
:1005B0000CC0440F551F661F771F17FD4160EE0CDE
:1005C000FF1C001F111F21503040403090E05907A0
:1005D00090E0690790E4790760F32B8F3C8FDB0193
:1005E000CA018F779070A070B07080349105A1051A
:1005F000B10561F447FD0AC0E114F10401051105DC
:1006000029F0405C5F4F6F4F7F4F40781A8EFE1786
:1006100011F081E08A8F4D8F5E8F6F8F78A383E01A
:10062000898FCE0149960E94FD03A096E2E10C94C9
:10063000FB20A8E1B0E0EFE1F3E00C94EB2069834C
:100640007A838B839C832D833E834F83588789E0F5
:10065000E82EF12CEC0EFD1ECE010196B7010E9492
:10066000D2048E010F5E1F4FCE010596B8010E9485
:10067000D2048985823040F08989823028F0C70110
:10068000B8010E944A0501C08FEF6896E6E00C941D
:100690000721A8E1B0E0EFE4F3E00C94EB206983DC
:1006A0007A838B839C832D833E834F83588789E095
:1006B000E82EF12CEC0EFD1ECE010196B7010E9432
:1006C000D2048E010F5E1F4FCE010596B8010E9425
:1006D000D2048985823040F08989823028F0C701B0
:1006E000B8010E944A0501C08FEF6896E6E00C94BD
:1006F0000721A8E1B0E0EFE7F3E00C94EB20698379
:100700007A838B839C832D833E834F83588789E034
:10071000E82EF12CEC0EFD1ECE010196B7010E94D1
:10072000D2048E010F5E1F4FCE010596B8010E94C4
:10073000D2048985823040F08989823028F0C7014F
:10074000B8010E944A0501C081E06896E6E00C9479
:100750000721ACE0B0E0EFEAF3E00C94EF2069830E
:100760007A838B839C83CE010196BE016B5F7F4FA2
:100770000E94D2048D81823061F1823050F1843048
:1007800021F48E81882351F12EC02F81388537FDC9
:1007900020C06E812F3131051CF06623F9F023C093
:1007A0008EE190E0821B930B29853A854B855C8511
:1007B00004C056954795379527958A95D2F76623B5
:1007C000B1F050954095309521953F4F4F4F5F4F79
:1007D0000EC020E030E040E050E009C02FEF3FEFD6
:1007E0004FEF5FE704C020E030E040E050E8B9019F
:1007F000CA012C96E2E00C940B21DF92EF92FF925B
:100800000F931F93FC01E480F58006811781D1804E
:100810008081823048F480E090E0A0E1B0E0E82AF6
:10082000F92A0A2B1B2BA5C0843009F49FC0823003
:1008300021F4EE24FF24870105C0E114F104010531
:10084000110519F4E0E0F0E096C0628173819FEF3A
:10085000623879070CF05BC022E83FEF261B370BAC
:100860002A3131052CF020E030E040E050E02AC091
:10087000B801A701022E04C0769567955795479554
:100880000A94D2F781E090E0A0E0B0E004C0880FC5
:10089000991FAA1FBB1F2A95D2F70197A109B10979
:1008A0008E219F21A023B1230097A105B10521F03E
:1008B00081E090E0A0E0B0E09A01AB01282B392B59
:1008C0004A2B5B2BDA01C9018F779070A070B07052
:1008D00080349105A105B10539F427FF09C0205CDA
:1008E0003F4F4F4F5F4F04C0215C3F4F4F4F5F4F13
:1008F000E0E0F0E02030A0E03A07A0E04A07A0E402
:100900005A0710F0E1E0F0E079018A0127C0603871
:10091000710564F5FB01E158FF4FD801C7018F77DE
:100920009070A070B07080349105A105B10539F4C4
:10093000E7FE0DC080E490E0A0E0B0E004C08FE3EB
:1009400090E0A0E0B0E0E80EF91E0A1F1B1F17FFA1
:1009500005C016950795F794E794319687E01695AC
:100960000795F794E7948A95D1F705C0EE24FF2404
:100970008701EFEFF0E06E2F679566276795902F60
:100980009F77D794DD24D7948E2F8695492F462BB9
:10099000582F5D29B701CA011F910F91FF90EF9069
:1009A000DF900895FC01DB01408151812281622F9B
:1009B0006F7770E0221F2227221F9381892F880FD3
:1009C000822B282F30E0991F9927991F11969C930D
:1009D000119721153105A9F54115510561057105DD
:1009E00011F482E037C082E89FEF13969C938E93B8
:1009F00012979A01AB0167E0220F331F441F551F66
:100A00006A95D1F783E08C930DC0220F331F441FEA
:100A1000551F12968D919C911397019713969C9355
:100A20008E931297203080E0380780E0480780E4FA
:100A3000580758F314962D933D934D935C93179755
:100A400008952F3F310579F4411551056105710570
:100A500019F484E08C93089564FF03C081E08C93C3
:100A600012C01C9210C02F57304013963C932E9307
:100A7000129783E08C9387E0440F551F661F771F02
:100A80008A95D1F7706414964D935D936D937C9322
:100A9000179708951F93DC01FB019C91923008F495
:100AA00047C08081823008F443C0943051F41196DD
:100AB0001C91843099F58181682F70E0611B710968
:100AC0003FC0843021F0923031F48230B9F181811D
:100AD000882389F12DC011961C9111978230F1F075
:100AE00081811817D9F412962D913C911397828128
:100AF00093818217930794F028173907BCF0149656
:100B00008D919D910D90BC91A02D248135814681C0
:100B10005781281739074A075B0718F4112341F05A
:100B20000AC082179307A407B50740F4112319F0F0
:100B300061E070E005C06FEF7FEF02C060E070E041
:100B4000CB011F910895DF93CF93CDB7DEB7AAE312
:100B5000B0E0EAE3F0E080818D7F8C93A7E2B0E023
:100B6000E7E2F0E080818F778C93A7E2B0E0E7E2E4
:100B7000F0E0808180648C93A7E2B0E0E7E2F0E0EF
:100B8000808180628C93A6E2B0E0E6E2F0E08081B2
:100B900081608C93A6E2B0E0E6E2F0E080818260C2
:100BA0008C93A6E2B0E0E6E2F0E0808184608C9372
:100BB000A6E2B0E0E6E2F0E0808180688C93CF911D
:100BC000DF910895DF93CF930F92CDB7DEB7E6E2C2
:100BD000F0E0808182958F708170898389810F9088
:100BE000CF91DF910895DF93CF930F92CDB7DEB70A
:100BF0008983A7E2B0E0E7E2F0E08081807E8C9319
:100C0000A7E2B0E0E7E2F0E090818981892B8C9344
:100C1000A6E2B0E0E6E2F0E0808180648C930E947E
:100C2000E2058823E1F3A6E2B0E0E6E2F0E08081AD
:100C300080618C93E5E2F0E08081882F90E00F9056
:100C4000CF91DF910895DF93CF9300D0CDB7DEB77A
:100C500081E00E94F3059A83898380E860E00E9426
:100C6000021889819A810E9435180F900F90CF91B8
:100C7000DF910895DF93CF9300D000D0CDB7DEB7DA
:100C80001C821B821A8219820E94F81780E690E06B
:100C90000E94CF170E94BA118A838A81813319F585
:100CA0000E94F81780E790E00E94CF170E94BA11C7
:100CB00089838981813351F4A5E3B0E0E5E3F0E075
:100CC000808180688C930E94F81732C089818233BA
:100CD00069F7A5E3B0E0E5E3F0E080818F778C93DE
:100CE0000E94F81725C08A818233A1F60E94F81766
:100CF0008FE790E00E94CF170E94BA118983898103
:100D0000813351F4A5E3B0E0E5E3F0E08081846055
:100D10008C930E94F8170CC08981823369F7A5E390
:100D2000B0E0E5E3F0E080818B7F8C930E94F817C0
:100D30000F900F900F900F90CF91DF910895DF9358
:100D4000CF93CDB7DEB7A2970FB6F894DEBF0FBE34
:100D5000CDBF1AA219A218A21F8E0E94F8178EE802
:100D600090E00E94CF170E94BA1188A388A1813316
:100D7000D9F581E00E94F3058E8F0E94F8178E8DC1
:100D8000882F90E00E94351881E00E94F3058E8F35
:100D90008E8D8F3188F0A5E3B0E0E5E3F0E080814F
:100DA00081608C938E8D882F90E00E94351880E0B2
:100DB00060E00E94021813C08E8D8E3180F4A5E38E
:100DC000B0E0E5E3F0E080818E7F8C938E8D882FFC
:100DD00090E00E94351880E060E00E9402188E8D3D
:100DE000882309F41CC1D0CF88A1823309F099C0AF
:100DF0000E94F81780EA90E00E94CF170E94BA1173
:100E00008F8F8F8D8133D1F70E94F8178F8D0E94BD
:100E100097161D8E79C089ED9AE10E949E1A80E096
:100E200090E0A8ECB2E4898F9A8FAB8FBC8F698D6C
:100E30007A8D8B8D9C8D20E030E04AE755E40E944E
:100E40001F02DC01CB018D8B9E8BAF8BB88F6D8920
:100E50007E898F89988D20E030E040E85FE30E9432
:100E6000790388232CF481E090E09C8B8B8B3FC02E
:100E70006D897E898F89988D20E03FEF4FE757E499
:100E80000E94190318164CF5698D7A8D8B8D9C8DF7
:100E900020E030E040E251E40E941F02DC01CB017F
:100EA000BC01CD010E944900DC01CB019C8B8B8BE6
:100EB0000FC080E991E09A8B898B89899A89019783
:100EC000F1F79A8B898B8B899C8901979C8B8B8BF3
:100ED0008B899C89009769F714C06D897E898F89F9
:100EE000988D0E944900DC01CB019C8B8B8B8B89F8
:100EF0009C89988B8F878F8598890197F1F7988BBC
:100F00008F878D8D8F5F8D8F8D8D853108F483CF89
:100F1000E0E3F0E0808188230CF07BCF0E94F8179B
:100F20007EC088A1833309F01ECF0E94F8178DEA96
:100F300090E00E94CF1780E090E4ACE9B6E48B87A4
:100F40009C87AD87BE876B857C858D859E8520E0DF
:100F500030E04AE755E40E941F02DC01CB018F8399
:100F60009887A987BA876F81788589859A8520E0D7
:100F700030E040E85FE30E94790388232CF481E0AD
:100F800090E09E838D833FC06F81788589859A85A7
:100F900020E03FEF4FE757E40E94190318164CF585
:100FA0006B857C858D859E8520E030E040E251E4B4
:100FB0000E941F02DC01CB01BC01CD010E9449004F
:100FC000DC01CB019E838D830FC080E991E09C837F
:100FD0008B838B819C810197F1F79C838B838D811F
:100FE0009E8101979E838D838D819E81009769F7F5
:100FF00014C06F81788589859A850E944900DC013B
:10100000CB019E838D838D819E819A838983898183
:101010009A810197F1F79A8389830E94F817A29623
:101020000FB6F894DEBF0FBECDBFCF91DF9108950C
:10103000DF93CF93CDB7DEB762970FB6F894DEBFDC
:101040000FBECDBF1A8A198A188A1F860E94F81708
:101050008A890E94971680E090E0AAEFB3E48B871C
:101060009C87AD87BE876B857C858D859E8520E0BE
:1010700030E04AE755E40E941F02DC01CB018F8378
:101080009887A987BA876F81788589859A8520E0B6
:1010900030E040E85FE30E94790388232CF481E08C
:1010A00090E09E838D833FC06F81788589859A8586
:1010B00020E03FEF4FE757E40E94190318164CF564
:1010C0006B857C858D859E8520E030E040E251E493
:1010D0000E941F02DC01CB01BC01CD010E9449002E
:1010E000DC01CB019E838D830FC080E991E09C835E
:1010F0008B838B819C810197F1F79C838B838D81FE
:101100009E8101979E838D838D819E81009769F7D3
:1011100014C06F81788589859A850E944900DC0119
:10112000CB019E838D838D819E819A838983898162
:101130009A810197F1F79A8389830E94F8170E9498
:101140005C090E94F8178CEB90E00E94CF1780ECAE
:1011500060E00E9402188AEC90E00E94CF170E9483
:10116000BA11898B8989813319F40E943A0605C026
:1011700089898233A1F70E949F0662960FB6F89480
:10118000DEBF0FBECDBFCF91DF910895DF93CF9328
:10119000CDB7DEB762970FB6F894DEBF0FBECDBFF6
:1011A0001A8A198A188A1F860E94F8178A890E944B
:1011B000971680E090E0AAE7B4E48B879C87AD8720
:1011C000BE876B857C858D859E8520E030E04AE773
:1011D00055E40E941F02DC01CB018F839887A98709
:1011E000BA876F81788589859A8520E030E040E86C
:1011F0005FE30E94790388232CF481E090E09E83D2
:101200008D833FC06F81788589859A8520E03FEF87
:101210004FE757E40E94190318164CF56B857C853F
:101220008D859E8520E030E040E251E40E941F025F
:10123000DC01CB01BC01CD010E944900DC01CB01E6
:101240009E838D830FC080E991E09C838B838B818B
:101250009C810197F1F79C838B838D819E810197FF
:101260009E838D838D819E81009769F714C06F8165
:10127000788589859A850E944900DC01CB019E838F
:101280008D838D819E819A83898389819A8101973B
:10129000F1F79A8389830E94F8170E943F0B0E94FE
:1012A000F8170E943A0662960FB6F894DEBF0FBE9A
:1012B000CDBFCF91DF9108950F931F93DF93CF930D
:1012C000CDB7DEB7E0970FB6F894DEBF0FBECDBF47
:1012D00081ED90E00E94CF1780EC60E00E94021840
:1012E00025C08BA5082F10E00E94BA11282FCE012F
:1012F0008C96FC01E00FF11F20838BA5282F30E096
:10130000CE018C96FC01E20FF31F8081882349F304
:101310008BA5282F30E0CE018C96FC01E20FF31F45
:1013200080810E9497168BA58F5F8BA78BA5843039
:10133000C0F218AA8FE391E09E01245D3F4FB901EE
:101340000E941621009739F40E94F81781EE90E070
:101350000E94CF1789C10E94F81781EF90E00E9488
:10136000CF1780E090E0AAEFB3E48FA398A7A9A7D6
:10137000BAA76FA178A589A59AA520E030E04AE731
:1013800055E40E941F02DC01CB018BA39CA3ADA3FB
:10139000BEA36BA17CA18DA19EA120E030E040E81E
:1013A0005FE30E94790388232CF481E090E09AA304
:1013B00089A33FC06BA17CA18DA19EA120E03FEF3E
:1013C0004FE757E40E94190318164CF56FA178A552
:1013D00089A59AA520E030E040E251E40E941F0276
:1013E000DC01CB01BC01CD010E944900DC01CB0135
:1013F0009AA389A30FC080E991E098A38F8F8F8D66
:1014000098A10197F1F798A38F8F89A19AA10197CD
:101410009AA389A389A19AA1009769F714C06BA127
:101420007CA18DA19EA10E944900DC01CB019AA361
:1014300089A389A19AA19E8F8D8F8D8D9E8D0197F5
:10144000F1F79E8F8D8F0E94F81780915A0183309B
:1014500008F080C081E091E00E94CF1780E090E02A
:10146000AAEFB3E4898F9A8FAB8FBC8F698D7A8D89
:101470008B8D9C8D20E030E04AE755E40E941F02EE
:10148000DC01CB018D8B9E8BAF8BB88F6D897E89F4
:101490008F89988D20E030E040E85FE30E94790377
:1014A00088232CF481E090E09C8B8B8B3FC06D896E
:1014B0007E898F89988D20E03FEF4FE757E40E94A7
:1014C000190318164CF5698D7A8D8B8D9C8D20E053
:1014D00030E040E251E40E941F02DC01CB01BC017C
:1014E000CD010E944900DC01CB019C8B8B8B0FC08E
:1014F00080E991E09A8B898B89899A890197F1F724
:101500009A8B898B8B899C8901979C8B8B8B8B8980
:101510009C89009769F714C06D897E898F89988DA1
:101520000E944900DC01CB019C8B8B8B8B899C89B1
:10153000988B8F878F8598890197F1F7988B8F8784
:101540000E94F81780915A018F5F80935A010E9480
:101550005C098AC083E191E00E94CF17ABE3B0E061
:10156000EBE3F0E0808188608C9380E090E4ACE96C
:10157000B6E48B879C87AD87BE876B857C858D8520
:101580009E8520E030E04AE755E40E941F02DC011E
:10159000CB018F839887A987BA876F8178858985E2
:1015A0009A8520E030E040E85FE30E9479038823D9
:1015B0002CF481E090E09E838D833FC06F8178851D
:1015C00089859A8520E03FEF4FE757E40E94190391
:1015D00018164CF56B857C858D859E8520E030E066
:1015E00040E251E40E941F02DC01CB01BC01CD01AD
:1015F0000E944900DC01CB019E838D830FC080E9EE
:1016000091E09C838B838B819C810197F1F79C8374
:101610008B838D819E8101979E838D838D819E8199
:10162000009769F714C06F81788589859A850E9433
:101630004900DC01CB019E838D838D819E819A833D
:10164000898389819A810197F1F79A838983ABE332
:10165000B0E0EBE3F0E08081877F8C930E94F81785
:1016600010925A010E945C09E0960FB6F894DEBF12
:101670000FBECDBFCF91DF911F910F9108950F93B2
:101680001F93DF93CF93CDB7DEB7E0970FB6F894F3
:10169000DEBF0FBECDBF81ED90E00E94CF1780EC82
:1016A00060E00E94021825C08BA5082F10E00E9460
:1016B000BA11282FCE018C96FC01E00FF11F208378
:1016C0008BA5282F30E0CE018C96FC01E20FF31F92
:1016D0008081882349F38BA5282F30E0CE018C969A
:1016E000FC01E20FF31F80810E9497168BA58F5F8C
:1016F0008BA78BA58430C0F218AA84E491E09E01E8
:10170000245D3F4FB9010E941621009739F40E94D1
:10171000F81781EE90E00E94CF1789C10E94F81758
:1017200081EF90E00E94CF1780E090E0AAEFB3E451
:101730008FA398A7A9A7BAA76FA178A589A59AA5ED
:1017400020E030E04AE755E40E941F02DC01CB01B3
:101750008BA39CA3ADA3BEA36BA17CA18DA19EA1D5
:1017600020E030E040E85FE30E94790388232CF416
:1017700081E090E09AA389A33FC06BA17CA18DA1D9
:101780009EA120E03FEF4FE757E40E94190318168F
:101790004CF56FA178A589A59AA520E030E040E23C
:1017A00051E40E941F02DC01CB01BC01CD010E946B
:1017B0004900DC01CB019AA389A30FC080E991E025
:1017C00098A38F8F8F8D98A10197F1F798A38F8F92
:1017D00089A19AA101979AA389A389A19AA10097A7
:1017E00069F714C06BA17CA18DA19EA10E94490044
:1017F000DC01CB019AA389A389A19AA19E8F8D8F29
:101800008D8D9E8D0197F1F79E8F8D8F0E94F81719
:1018100080915B01833008F080C081E091E00E94FC
:10182000CF1780E090E0AAEFB3E4898F9A8FAB8F57
:10183000BC8F698D7A8D8B8D9C8D20E030E04AE7DE
:1018400055E40E941F02DC01CB018D8B9E8BAF8B78
:10185000B88F6D897E898F89988D20E030E040E8CF
:101860005FE30E94790388232CF481E090E09C8B55
:101870008B8B3FC06D897E898F89988D20E03FEFEB
:101880004FE757E40E94190318164CF5698D7A8DBD
:101890008B8D9C8D20E030E040E251E40E941F02DD
:1018A000DC01CB01BC01CD010E944900DC01CB0170
:1018B0009C8B8B8B0FC080E991E09A8B898B8989F7
:1018C0009A890197F1F79A8B898B8B899C8901976B
:1018D0009C8B8B8B8B899C89009769F714C06D89D1
:1018E0007E898F89988D0E944900DC01CB019C8BF9
:1018F0008B8B8B899C89988B8F878F859889019793
:10190000F1F7988B8F870E94F81780915B018F5FAA
:1019100080935B010E943F0B8AC083E191E00E94AB
:10192000CF17ABE3B0E0EBE3F0E0808188608C930D
:1019300080E090E4ACE9B6E48B879C87AD87BE87F6
:101940006B857C858D859E8520E030E04AE755E4F7
:101950000E941F02DC01CB018F839887A987BA8779
:101960006F81788589859A8520E030E040E85FE3E3
:101970000E94790388232CF481E090E09E838D837C
:101980003FC06F81788589859A8520E03FEF4FE7DA
:1019900057E40E94190318164CF56B857C858D85DC
:1019A0009E8520E030E040E251E40E941F02DC010D
:1019B000CB01BC01CD010E944900DC01CB019E831B
:1019C0008D830FC080E991E09C838B838B819C8108
:1019D0000197F1F79C838B838D819E8101979E8374
:1019E0008D838D819E81009769F714C06F81788502
:1019F00089859A850E944900DC01CB019E838D83F5
:101A00008D819E819A83898389819A810197F1F7DB
:101A10009A838983ABE3B0E0EBE3F0E08081877FDA
:101A20008C930E94F81710925B010E943F0BE09686
:101A30000FB6F894DEBF0FBECDBFCF91DF911F91DF
:101A40000F910895DF93CF930F92CDB7DEB7198230
:101A50008FE191E00E94CF170E94BA11898389819A
:101A6000813319F40E94180805C089818233A1F7D7
:101A70000E94C6080F90CF91DF910895DF93CF9316
:101A800000D0CDB7DEB789836A8389818430F8F4CA
:101A90008981882329F4EAE3F0E08A81808317C0F2
:101AA0008981813029F4E7E3F0E08A8180830FC0E7
:101AB0008981823029F4E4E3F0E08A81808307C0E1
:101AC0008981833021F4E1E3F0E08A8180830F9003
:101AD0000F90CF91DF910895DF93CF9300D0CDB7D2
:101AE000DEB789836A8389818430F8F48981882309
:101AF00029F4EBE3F0E08A81808317C0898181308B
:101B000029F4E8E3F0E08A8180830FC08981823084
:101B100029F4E5E3F0E08A81808307C0898183307E
:101B200021F4E2E3F0E08A8180830F900F90CF915F
:101B3000DF910895DF93CF9300D0CDB7DEB78983CF
:101B40006A8389818430D8F48981882321F4EBE386
:101B5000F0E0108214C08981813021F4E8E3F0E0E4
:101B600010820DC08981823021F4E5E3F0E010821B
:101B700006C08981833019F4E2E3F0E010820F900F
:101B80000F90CF91DF910895DF93CF9300D0CDB721
:101B9000DEB78A838A818430F8F48A81882329F425
:101BA000E9E3F0E08081898317C08A81813029F4DC
:101BB000E6E3F0E0808189830FC08A81823029F4D6
:101BC000E3E3F0E08081898307C08A81833021F4D8
:101BD000E0E3F0E08081898389810F900F90CF91BD
:101BE000DF910895DF93CF930F92CDB7DEB789834E
:101BF0008981843058F58981882341F4ABE3B0E0D2
:101C0000EBE3F0E0808180958C9320C08981813066
:101C100041F4A8E3B0E0E8E3F0E0808180958C93A4
:101C200015C08981823041F4A5E3B0E0E5E3F0E03E
:101C3000808180958C930AC08981833039F4A2E336
:101C4000B0E0E2E3F0E0808180958C930F90CF913B
:101C5000DF910895DF93CF9300D00F92CDB7DEB719
:101C600089836A834B838981843008F0C4C0898169
:101C7000882371F58B818130A1F4AAE3B0E0EAE317
:101C8000F0E08081482F8A81282F30E081E090E0C9
:101C9000022E02C0880F991F0A94E2F7842B8C93BE
:101CA00017C08B818823A1F4AAE3B0E0EAE3F0E057
:101CB0008081482F8A81282F30E081E090E0022E39
:101CC00002C0880F991F0A94E2F7809584238C93B1
:101CD0008981813071F58B818130A1F4A7E3B0E077
:101CE000E7E3F0E08081482F8A81282F30E081E00F
:101CF00090E0022E02C0880F991F0A94E2F7842B0D
:101D00008C9317C08B818823A1F4A7E3B0E0E7E3AD
:101D1000F0E08081482F8A81282F30E081E090E038
:101D2000022E02C0880F991F0A94E2F7809584233F
:101D30008C938981823071F58B818130A1F4A4E389
:101D4000B0E0E4E3F0E08081482F8A81282F30E082
:101D500081E090E0022E02C0880F991F0A94E2F7FA
:101D6000842B8C9317C08B818823A1F4A4E3B0E06B
:101D7000E4E3F0E08081482F8A81282F30E081E081
:101D800090E0022E02C0880F991F0A94E2F7809516
:101D900084238C938981833071F58B818130A1F408
:101DA000A1E3B0E0E1E3F0E08081482F8A81282FB1
:101DB00030E081E090E0022E02C0880F991F0A9463
:101DC000E2F7842B8C9317C08B818823A1F4A1E3C5
:101DD000B0E0E1E3F0E08081482F8A81282F30E0F5
:101DE00081E090E0022E02C0880F991F0A94E2F76A
:101DF000809584238C930F900F900F90CF91DF915B
:101E00000895DF93CF9300D0CDB7DEB789836A837F
:101E10008981843008F058C08981882399F4ABE324
:101E2000B0E0EBE3F0E08081482F8A81282F30E09A
:101E300081E090E0022E02C0880F991F0A94E2F719
:101E4000842B8C938981813099F4A8E3B0E0E8E396
:101E5000F0E08081482F8A81282F30E081E090E0F7
:101E6000022E02C0880F991F0A94E2F7842B8C93EC
:101E70008981823099F4A5E3B0E0E5E3F0E0808168
:101E8000482F8A81282F30E081E090E0022E02C0A6
:101E9000880F991F0A94E2F7842B8C9389818330F1
:101EA00099F4A2E3B0E0E2E3F0E08081482F8A8178
:101EB000282F30E081E090E0022E02C0880F991FA9
:101EC0000A94E2F7842B8C930F900F90CF91DF91BF
:101ED0000895DF93CF9300D0CDB7DEB789836A83AF
:101EE0008981843008F05CC089818823A1F4ABE348
:101EF000B0E0EBE3F0E08081482F8A81282F30E0CA
:101F000081E090E0022E02C0880F991F0A94E2F748
:101F1000809584238C9389818130A1F4A8E3B0E07B
:101F2000E8E3F0E08081482F8A81282F30E081E0CB
:101F300090E0022E02C0880F991F0A94E2F7809564
:101F400084238C9389818230A1F4A5E3B0E0E5E39A
:101F5000F0E08081482F8A81282F30E081E090E0F6
:101F6000022E02C0880F991F0A94E2F780958423FD
:101F70008C9389818330A1F4A2E3B0E0E2E3F0E046
:101F80008081482F8A81282F30E081E090E0022E66
:101F900002C0880F991F0A94E2F7809584238C93DE
:101FA0000F900F90CF91DF910895DF93CF9300D0E2
:101FB000CDB7DEB789836A838981843008F058C041
:101FC0008981882399F4ABE3B0E0EBE3F0E0808112
:101FD000482F8A81282F30E081E090E0022E02C055
:101FE000880F991F0A94E2F784278C9389818130A6
:101FF00099F4A8E3B0E0E8E3F0E08081482F8A811B
:10200000282F30E081E090E0022E02C0880F991F57
:102010000A94E2F784278C938981823099F4A5E3AE
:10202000B0E0E5E3F0E08081482F8A81282F30E09E
:1020300081E090E0022E02C0880F991F0A94E2F717
:1020400084278C938981833099F4A2E3B0E0E2E3A2
:10205000F0E08081482F8A81282F30E081E090E0F5
:10206000022E02C0880F991F0A94E2F784278C93EE
:102070000F900F90CF91DF910895DF93CF9300D011
:1020800000D0CDB7DEB789836A838981843008F0B8
:1020900058C08981882399F4E9E3F0E08081282FF2
:1020A00030E08A81882F90E0A90102C055954795BC
:1020B0008A95E2F7CA01582F51705B8343C089812A
:1020C000813099F4E6E3F0E08081282F30E08A81C6
:1020D000882F90E0A90102C0559547958A95E2F7AF
:1020E000CA01582F51705B832DC08981823099F4C9
:1020F000E3E3F0E08081282F30E08A81882F90E0B0
:10210000A90102C0559547958A95E2F7CA01582F53
:1021100051705B8317C08981833099F4E0E3F0E06C
:102120008081282F30E08A81882F90E0A90102C0A9
:10213000559547958A95E2F7CA01582F51705B83F0
:1021400001C002C08B818C838C810F900F900F9007
:102150000F90CF91DF910895DF93CF93CDB7DEB786
:1021600062970FB6F894DEBF0FBECDBF998B888BF8
:102170006A8B88899989892F992780658F870E9422
:102180005B1B8F850E94C51C88890E94491E8A8915
:102190000E94491E0E94B21F80E090E0A0EAB0E4D5
:1021A0008B879C87AD87BE876B857C858D859E855B
:1021B00020E030E04AE755E40E941F02DC01CB0139
:1021C0008F839887A987BA876F81788589859A8553
:1021D00020E030E040E85FE30E94790388232CF49C
:1021E00081E090E09E838D833FC06F8178858985F3
:1021F0009A8520E03FEF4FE757E40E941903181635
:102200004CF56B857C858D859E8520E030E040E235
:1022100051E40E941F02DC01CB01BC01CD010E94F0
:102220004900DC01CB019E838D830FC080E991E0E2
:102230009C838B838B819C810197F1F79C838B839B
:102240008D819E8101979E838D838D819E810097D4
:1022500069F714C06F81788589859A850E94490045
:10226000DC01CB019E838D838D819E819A8389833E
:1022700089819A810197F1F79A83898362960FB6D3
:10228000F894DEBF0FBECDBFCF91DF910895DF93ED
:10229000CF9300D000D0CDB7DEB79C838B838B81EA
:1022A0009C81892F9927806589830E945B1B898186
:1022B0000E94C51C8B810E94491E0E94101C8981AE
:1022C0000E94871DCE0102960E94FC1E0E94B21F32
:1022D0008A810F900F900F900F90CF91DF9108950A
:1022E000DF93CF93CDB7DEB783E06FEF0E943E0D53
:1022F000A7E3B0E0E7E3F0E080818F708C93A8E380
:10230000B0E0E8E3F0E0808180618C93A8E3B0E086
:10231000E8E3F0E0808180628C93A8E3B0E0E8E33A
:10232000F0E0808180648C93A8E3B0E0E8E3F0E023
:10233000808180688C93A2E3B0E0E2E3F0E08081EA
:1023400081608C93A2E3B0E0E2E3F0E08081826000
:102350008C93A2E3B0E0E2E3F0E0808184608C93B0
:10236000A2E3B0E0E2E3F0E0808188608C93CF915B
:10237000DF910895DF93CF93CDB7DEB761970FB6A6
:10238000F894DEBF0FBECDBF188AF5C0A2E3B0E05F
:10239000E2E3F0E08081482F8889282F30E081E057
:1023A00090E0022E02C0880F991F0A94E2F78095F0
:1023B00084238C931F86C5C0E6E3F0E08081282F3C
:1023C00030E08F85882F90E00496A90102C05595D2
:1023D00047958A95E2F7CA0181709070009709F0DD
:1023E000ADC080E090E0A8ECB1E48B879C87AD871E
:1023F000BE876B857C858D859E8520E030E04AE731
:1024000055E40E941F02DC01CB018F839887A987C6
:10241000BA876F81788589859A8520E030E040E829
:102420005FE30E94790388232CF481E090E09E838F
:102430008D833FC06F81788589859A8520E03FEF45
:102440004FE757E40E94190318164CF56B857C85FD
:102450008D859E8520E030E040E251E40E941F021D
:10246000DC01CB01BC01CD010E944900DC01CB01A4
:102470009E838D830FC080E991E09C838B838B8149
:102480009C810197F1F79C838B838D819E810197BD
:102490009E838D838D819E81009769F714C06F8123
:1024A000788589859A850E944900DC01CB019E834D
:1024B0008D838D819E819A83898389819A810197F9
:1024C000F1F79A838983E6E3F0E08081282F30E0FA
:1024D0008F85882F90E00496A90102C055954795F5
:1024E0008A95E2F7CA0181709070882361F7E6E36C
:1024F000F0E08081282F30E08F85882F90E00496CF
:10250000A90102C0559547958A95E2F7CA018170E5
:102510009070009799F48889482F50E08F85282F74
:1025200030E0CA01880F991F880F991F820F931FEF
:10253000FC01E75BFE4F5081598B22C08F858F5F76
:102540008F878F85843008F437CFA2E3B0E0E2E3D1
:10255000F0E08081482F8889282F30E081E090E0EA
:10256000022E02C0880F991F0A94E2F7842B8C93E5
:1025700088898F5F888B8889843008F407CF198A0F
:10258000898961960FB6F894DEBF0FBECDBFCF919B
:10259000DF9108950F931F93DF93CF93CDB7DEB7ED
:1025A000C654D0400FB6F894DEBF0FBECDBF80E05A
:1025B00064E041E00E942A0E80E065E041E00E9474
:1025C0002A0E80E066E041E00E942A0E80E067E08B
:1025D00041E00E942A0E81E061E041E00E942A0E63
:1025E00081E062E041E00E942A0E81E063E041E088
:1025F0000E942A0EFE01ED5BFF4F80E090E0A8E410
:10260000B2E480839183A283B3838E01015C1F4F68
:10261000FE01ED5BFF4F608171818281938120E03B
:1026200030E04AE755E40E941F02DC01CB01F801CB
:1026300080839183A283B383FE01FF9660817181C1
:102640008281938120E030E040E85FE30E947903DB
:1026500088232CF481E090E09EAF8DAF46C0FE0150
:10266000FF96608171818281938120E03FEF4FE787
:1026700057E40E941903181664F5FE01ED5BFF4F45
:10268000608171818281938120E030E040E251E4F9
:102690000E941F02DC01CB01BC01CD010E94490058
:1026A000DC01CB019EAF8DAF0FC080E991E09CAF04
:1026B0008BAF8BAD9CAD0197F1F79CAF8BAF8DAD20
:1026C0009EAD01979EAF8DAF8DAD9EAD009769F722
:1026D00016C0FE01FF9660817181828193810E9404
:1026E0004900DC01CB019EAF8DAF8DAD9EAD9AAFA1
:1026F00089AF89AD9AAD0197F1F79AAF89AF81E0C3
:102700000E945F1580E090E0A8E4B2E48DAB9EAB40
:10271000AFABB8AF6DA97EA98FA998AD20E030E02E
:102720004AE755E40E941F02DC01CB0189AB9AAB5A
:10273000ABABBCAB69A97AA98BA99CA920E030E01E
:1027400040E85FE30E94790388232CF481E090E065
:1027500098AB8FA73FC069A97AA98BA99CA920E053
:102760003FEF4FE757E40E94190318164CF56DA987
:102770007EA98FA998AD20E030E040E251E40E94AC
:102780001F02DC01CB01BC01CD010E944900DC012C
:10279000CB0198AB8FA70FC080E991E09EA78DA7D2
:1027A0008DA59EA50197F1F79EA78DA78FA598A946
:1027B000019798AB8FA78FA598A9009769F714C0C8
:1027C00069A97AA98BA99CA90E944900DC01CB01C7
:1027D00098AB8FA78FA598A99CA78BA78BA59CA525
:1027E0000197F1F79CA78BA788E20E945F1580E014
:1027F00090E0A8E4B2E48FA398A7A9A7BAA76FA115
:1028000078A589A59AA520E030E04AE755E40E9422
:102810001F02DC01CB018BA39CA3ADA3BEA36BA1C4
:102820007CA18DA19EA120E030E040E85FE30E9402
:10283000790388232CF481E090E09AA389A33FC018
:102840006BA17CA18DA19EA120E03FEF4FE757E453
:102850000E94190318164CF56FA178A589A59AA5B1
:1028600020E030E040E251E40E941F02DC01CB0195
:10287000BC01CD010E944900DC01CB019AA389A3D0
:102880000FC080E991E098A38F8F8F8D98A1019759
:10289000F1F798A38F8F89A19AA101979AA389A391
:1028A00089A19AA1009769F714C06BA17CA18DA1A1
:1028B0009EA10E944900DC01CB019AA389A389A1B2
:1028C0009AA19E8F8D8F8D8D9E8D0197F1F79E8F92
:1028D0008D8F86E00E945F1580E090E0A8E4B2E46E
:1028E000898F9A8FAB8FBC8F698D7A8D8B8D9C8DE4
:1028F00020E030E04AE755E40E941F02DC01CB01F2
:102900008D8B9E8BAF8BB88F6D897E898F89988DCB
:1029100020E030E040E85FE30E94790388232CF454
:1029200081E090E09C8B8B8B3FC06D897E898F8985
:10293000988D20E03FEF4FE757E40E9419031816E7
:102940004CF5698D7A8D8B8D9C8D20E030E040E2D6
:1029500051E40E941F02DC01CB01BC01CD010E94A9
:102960004900DC01CB019C8B8B8B0FC080E991E08F
:102970009A8B898B89899A890197F1F79A8B898B30
:102980008B899C8901979C8B8B8B8B899C89009769
:1029900069F714C06D897E898F89988D0E944900DE
:1029A000DC01CB019C8B8B8B8B899C89988B8F87CF
:1029B0008F8598890197F1F7988B8F878FE00E9418
:1029C0005F1580E090E0A8E4B2E48B879C87AD8738
:1029D000BE876B857C858D859E8520E030E04AE74B
:1029E00055E40E941F02DC01CB018F839887A987E1
:1029F000BA876F81788589859A8520E030E040E844
:102A00005FE30E94790388232CF481E090E09E83A9
:102A10008D833FC06F81788589859A8520E03FEF5F
:102A20004FE757E40E94190318164CF56B857C8517
:102A30008D859E8520E030E040E251E40E941F0237
:102A4000DC01CB01BC01CD010E944900DC01CB01BE
:102A50009E838D830FC080E991E09C838B838B8163
:102A60009C810197F1F79C838B838D819E810197D7
:102A70009E838D838D819E81009769F714C06F813D
:102A8000788589859A850E944900DC01CB019E8367
:102A90008D838D819E819A83898389819A81019713
:102AA000F1F79A838983CA5BDF4F0FB6F894DEBFD4
:102AB0000FBECDBFCF91DF911F910F910895DF938E
:102AC000CF93CDB7DEB76D970FB6F894DEBF0FBECC
:102AD000CDBF8D8FA8E3B0E0E8E3F0E080818D7F8B
:102AE0008C93A8E3B0E0E8E3F0E080818B7F8C93E7
:102AF000A8E3B0E0E8E3F0E08081877F8C938D8DE0
:102B0000982F907F80E0692F0E946C0DA8E3B0E0C1
:102B1000E8E3F0E0808188608C9380E090E0A8E4B6
:102B2000B2E4898F9A8FAB8FBC8F698D7A8D8B8D34
:102B30009C8D20E030E04AE755E40E941F02DC0152
:102B4000CB018D8B9E8BAF8BB88F6D897E898F89E2
:102B5000988D20E030E040E85FE30E94790388230D
:102B60002CF481E090E09C8B8B8B3FC06D897E893B
:102B70008F89988D20E03FEF4FE757E40E941903BB
:102B800018164CF5698D7A8D8B8D9C8D20E030E088
:102B900040E251E40E941F02DC01CB01BC01CD01E7
:102BA0000E944900DC01CB019C8B8B8B0FC080E91C
:102BB00091E09A8B898B89899A890197F1F79A8B91
:102BC000898B8B899C8901979C8B8B8B8B899C89AA
:102BD000009769F714C06D897E898F89988D0E944E
:102BE0004900DC01CB019C8B8B8B8B899C89988B5A
:102BF0008F878F8598890197F1F7988B8F87A8E346
:102C0000B0E0E8E3F0E08081877F8C938D8D982F92
:102C10009295907F80E0692F0E946C0DA8E3B0E050
:102C2000E8E3F0E0808188608C9380E090E0A8E4A5
:102C3000B2E48B879C87AD87BE876B857C858D854D
:102C40009E8520E030E04AE755E40E941F02DC0147
:102C5000CB018F839887A987BA876F81788589850B
:102C60009A8520E030E040E85FE30E947903882302
:102C70002CF481E090E09E838D833FC06F81788546
:102C800089859A8520E03FEF4FE757E40E941903BA
:102C900018164CF56B857C858D859E8520E030E08F
:102CA00040E251E40E941F02DC01CB01BC01CD01D6
:102CB0000E944900DC01CB019E838D830FC080E917
:102CC00091E09C838B838B819C810197F1F79C839E
:102CD0008B838D819E8101979E838D838D819E81C3
:102CE000009769F714C06F81788589859A850E945D
:102CF0004900DC01CB019E838D838D819E819A8367
:102D0000898389819A810197F1F79A838983A8E35E
:102D1000B0E0E8E3F0E08081877F8C936D960FB69A
:102D2000F894DEBF0FBECDBFCF91DF910895DF9342
:102D3000CF93CDB7DEB76D970FB6F894DEBF0FBE59
:102D4000CDBF8D8FA8E3B0E0E8E3F0E08081826042
:102D50008C93A8E3B0E0E8E3F0E080818B7F8C9374
:102D6000A8E3B0E0E8E3F0E08081877F8C938D8D6D
:102D7000982F907F80E0692F0E946C0DA8E3B0E04F
:102D8000E8E3F0E0808188608C9380E090E0A8E444
:102D9000B2E4898F9A8FAB8FBC8F698D7A8D8B8DC2
:102DA0009C8D20E030E04AE755E40E941F02DC01E0
:102DB000CB018D8B9E8BAF8BB88F6D897E898F8970
:102DC000988D20E030E040E85FE30E94790388239B
:102DD0002CF481E090E09C8B8B8B3FC06D897E89C9
:102DE0008F89988D20E03FEF4FE757E40E94190349
:102DF00018164CF5698D7A8D8B8D9C8D20E030E016
:102E000040E251E40E941F02DC01CB01BC01CD0174
:102E10000E944900DC01CB019C8B8B8B0FC080E9A9
:102E200091E09A8B898B89899A890197F1F79A8B1E
:102E3000898B8B899C8901979C8B8B8B8B899C8937
:102E4000009769F714C06D897E898F89988D0E94DB
:102E50004900DC01CB019C8B8B8B8B899C89988BE7
:102E60008F878F8598890197F1F7988B8F87A8E3D3
:102E7000B0E0E8E3F0E08081877F8C938D8D982F20
:102E80009295907F80E0692F0E946C0DA8E3B0E0DE
:102E9000E8E3F0E0808188608C9380E090E0A8E433
:102EA000B2E48B879C87AD87BE876B857C858D85DB
:102EB0009E8520E030E04AE755E40E941F02DC01D5
:102EC000CB018F839887A987BA876F817885898599
:102ED0009A8520E030E040E85FE30E947903882390
:102EE0002CF481E090E09E838D833FC06F817885D4
:102EF00089859A8520E03FEF4FE757E40E94190348
:102F000018164CF56B857C858D859E8520E030E01C
:102F100040E251E40E941F02DC01CB01BC01CD0163
:102F20000E944900DC01CB019E838D830FC080E9A4
:102F300091E09C838B838B819C810197F1F79C832B
:102F40008B838D819E8101979E838D838D819E8150
:102F5000009769F714C06F81788589859A850E94EA
:102F60004900DC01CB019E838D838D819E819A83F4
:102F7000898389819A810197F1F79A838983A8E3EC
:102F8000B0E0E8E3F0E08081877F8C936D960FB628
:102F9000F894DEBF0FBECDBFCF91DF910895DF93D0
:102FA000CF9300D00F92CDB7DEB79B838A8319826F
:102FB0000EC08981282F30E08A819B81FC01E20FBD
:102FC000F31F80810E94971689818F5F8983898191
:102FD000282F30E08A819B81FC01E20FF31F808162
:102FE000882339F70F900F900F90CF91DF910895BC
:102FF000DF93CF93CDB7DEB781E00E945F15CF910D
:10300000DF910895DF93CF9300D0CDB7DEB78983EA
:103010006A8389819A81890F0E945F150F900F90B2
:10302000CF91DF910895DF93CF9300D00F92CDB76A
:10303000DEB79B838A8319820DC08A819B812AE037
:1030400030E0B9010E94CB20CB019B838A83898128
:103050008F5F89838A819B81009779F789810F909F
:103060000F900F90CF91DF910895DF93CF93CDB75D
:10307000DEB76B970FB6F894DEBF0FBECDBF9B8F48
:103080008A8F20915C0130915D018A8D9B8D28177C
:10309000390749F08A8D9B8D90935D0180935C0187
:1030A00081E00E945F158A8D9B8D9A8B898B89891F
:1030B0009A890E941318888B1B8A28C089899A894B
:1030C0002AE030E0B9010E94CB208F8789899A8954
:1030D0002AE030E0B9010E94CB20CB019A8B898B8A
:1030E0008889282F30E08B89882F90E080959095F3
:1030F000280F391F8F85482F405DCE014496FC0173
:10310000E20FF31F40838B898F5F8B8B9B898889AC
:103110009817A0F28889282F30E0CE014496FC0150
:10312000E20FF31F1082CE0144960E94CF1780E079
:1031300090E0A8ECB2E48B879C87AD87BE876B8557
:103140007C858D859E8520E030E04AE755E40E942D
:103150001F02DC01CB018F839887A987BA876F8113
:10316000788589859A8520E030E040E85FE30E9419
:10317000790388232CF481E090E09E838D833FC007
:103180006F81788589859A8520E03FEF4FE757E486
:103190000E94190318164CF56B857C858D859E85DC
:1031A00020E030E040E251E40E941F02DC01CB014C
:1031B000BC01CD010E944900DC01CB019E838D83BF
:1031C0000FC080E991E09C838B838B819C81019768
:1031D000F1F79C838B838D819E8101979E838D83E4
:1031E0008D819E81009769F714C06F8178858985EC
:1031F0009A850E944900DC01CB019E838D838D81DD
:103200009E819A83898389819A810197F1F79A83B4
:1032100089836B960FB6F894DEBF0FBECDBFCF91FA
:10322000DF910895DF93CF93CDB7DEB7A4E3B0E08D
:10323000E4E3F0E0808184608C93A4E3B0E0E4E315
:10324000F0E0808180688C93A1E3B0E0E1E3F0E0FE
:10325000808188608C93CF91DF910895DF93CF9325
:10326000CDB7DEB780915E01882351F4ECE5F0E044
:103270008AE1808380915E018F5F80935E010DC043
:1032800080915E01813049F4ECE5F0E08DE08083CF
:1032900080915E01815080935E01CF91DF9108950E
:1032A000DF93CF93CDB7DEB7A7E3B0E0E7E3F0E07D
:1032B000808180628C93A7E3B0E0E7E3F0E0808157
:1032C0008F7B8C93A7E3B0E0E7E3F0E08081806838
:1032D0008C93A7E3B0E0E7E3F0E080818F7E8C93EE
:1032E000A8E3B0E0E8E3F0E0808180618C93ADE298
:1032F000B0E0EDE2F0E0808180618C93ADE2B0E07F
:10330000EDE2F0E080818E7F8C93ADE2B0E0EDE203
:10331000F0E0808182608C93AEE2B0E0EEE2F0E01B
:1033200080818E7F8C93ADE2B0E0EDE2F0E08081B1
:1033300080648C93A4E3B0E0E4E3F0E080818160FA
:103340008C93A5E3B0E0E5E3F0E080818E7F8C9381
:10335000CF91DF910895DF93CF930F92CDB7DEB772
:103360008983EFE2F0E089818083EEE2F0E0808102
:103370008823DCF7EFE2F0E080810F90CF91DF91BE
:103380000895DF93CF93CDB7DEB72E970FB6F8949D
:10339000DEBF0FBECDBFA5E3B0E0E5E3F0E0808186
:1033A00081608C9380E090E0A0E2B1E48B879C8701
:1033B000AD87BE876B857C858D859E8520E030E05E
:1033C0004AE755E40E941F02DC01CB018F839887F6
:1033D000A987BA876F81788589859A8520E030E052
:1033E00040E85FE30E94790388232CF481E090E0B9
:1033F0009E838D833FC06F81788589859A8520E083
:103400003FEF4FE757E40E94190318164CF56B8500
:103410007C858D859E8520E030E040E251E40E946D
:103420001F02DC01CB01BC01CD010E944900DC017F
:10343000CB019E838D830FC080E991E09C838B83B9
:103440008B819C810197F1F79C838B838D819E8179
:1034500001979E838D838D819E81009769F714C0AB
:103460006F81788589859A850E944900DC01CB01AE
:103470009E838D838D819E819A83898389819A81A0
:103480000197F1F79A838983A5E3B0E0E5E3F0E0E3
:1034900080818E7F8C932E960FB6F894DEBF0FBE80
:1034A000CDBFCF91DF910895DF93CF93CDB7DEB736
:1034B000E3E5F0E08BE08083A3E5B0E0E3E5F0E056
:1034C00080818F7E8C93A3E5B0E0E3E5F0E080811E
:1034D0008F7D8C93A3E5B0E0E3E5F0E08081886028
:1034E0008C93A3E5B0E0E3E5F0E0808181608C930C
:1034F000A3E5B0E0E3E5F0E0808182608C93AFE586
:10350000B0E0EFE5F0E0808180688C93A9E5B0E061
:10351000E9E5F0E0808181608C93A1E3B0E0E1E334
:10352000F0E0808180688C93A2E3B0E0E2E3F0E019
:10353000808180688C93CF91DF910895DF93CF9342
:1035400000D0CDB7DEB79A83898389819A810097AD
:1035500031F089819A819093600180935F010F908F
:103560000F90CF91DF910895DF93CF9300D000D0DB
:10357000CDB7DEB79A83898380915F019091600116
:10358000009729F0E0915F01F091600109950F909B
:103590000F900F900F90CF91DF910895DF93CF930D
:1035A000CDB7DEB789ED9AE10E949E1ACF91DF91E7
:1035B0000895DF93CF93CDB7DEB7809161018F5F20
:1035C0008093610180916101823079F4A2E3B0E0DF
:1035D000E2E3F0E080818F778C93A5E3B0E0E5E350
:1035E000F0E080818F778C9314C0809161018431E9
:1035F00081F4A2E3B0E0E2E3F0E0808180688C93A4
:10360000A5E3B0E0E5E3F0E0808180688C93109260
:103610006101CF91DF910895DF93CF930F92CDB7E2
:10362000DEB78983E0E2F0E08CE08083A1E2B0E0E5
:10363000E1E2F0E080818E7F8C93A1E2B0E0E1E2F4
:10364000F0E080818D7F8C938981882329F0E2E2EC
:10365000F0E08981880F8083A6E5B0E0E6E5F0E040
:10366000808180648C93A6E5B0E0E6E5F0E080819F
:1036700084608C930F90CF91DF910895DF93CF9367
:103680000F92CDB7DEB78983E2E2F0E08981880F3F
:103690008083A6E5B0E0E6E5F0E0808180648C936D
:1036A000A6E5B0E0E6E5F0E0808184608C930F90C1
:1036B000CF91DF910895DF93CF93CDB7DEB72F97EA
:1036C0000FB6F894DEBF0FBECDBF1F86A6E5B0E0F3
:1036D000E6E5F0E0808180628C93A6E5B0E0E6E567
:1036E000F0E0808180688C93E6E5F0E080818823BB
:1036F000DCF7E1E2F0E08081882F90E0887F907035
:103700008830910519F081E08F8780C0A5E3B0E093
:10371000E5E3F0E0808184608C9380E090E0AAEFA4
:10372000B4E48B879C87AD87BE876B857C858D8550
:103730009E8520E030E04AE755E40E941F02DC014C
:10374000CB018F839887A987BA876F817885898510
:103750009A8520E030E040E85FE30E947903882307
:103760002CF481E090E09E838D833FC06F8178854B
:1037700089859A8520E03FEF4FE757E40E941903BF
:1037800018164CF56B857C858D859E8520E030E094
:1037900040E251E40E941F02DC01CB01BC01CD01DB
:1037A0000E944900DC01CB019E838D830FC080E91C
:1037B00091E09C838B838B819C810197F1F79C83A3
:1037C0008B838D819E8101979E838D838D819E81C8
:1037D000009769F714C06F81788589859A850E9462
:1037E0004900DC01CB019E838D838D819E819A836C
:1037F000898389819A810197F1F79A838983A5E367
:10380000B0E0E5E3F0E080818B7F8C938F852F968D
:103810000FB6F894DEBF0FBECDBFCF91DF910895F4
:10382000DF93CF93CDB7DEB72F970FB6F894DEBFF7
:103830000FBECDBF1F86A6E5B0E0E6E5F0E08081D3
:1038400080628C93A6E5B0E0E6E5F0E080818068D8
:103850008C93E6E5F0E080818823DCF7E1E2F0E09C
:103860008081882F90E0887F90708031910519F0D9
:1038700082E08F8780C0A5E3B0E0E5E3F0E08081DF
:1038800084608C9380E090E0AAEFB4E48B879C87FF
:10389000AD87BE876B857C858D859E8520E030E079
:1038A0004AE755E40E941F02DC01CB018F83988711
:1038B000A987BA876F81788589859A8520E030E06D
:1038C00040E85FE30E94790388232CF481E090E0D4
:1038D0009E838D833FC06F81788589859A8520E09E
:1038E0003FEF4FE757E40E94190318164CF56B851C
:1038F0007C858D859E8520E030E040E251E40E9489
:103900001F02DC01CB01BC01CD010E944900DC019A
:10391000CB019E838D830FC080E991E09C838B83D4
:103920008B819C810197F1F79C838B838D819E8194
:1039300001979E838D838D819E81009769F714C0C6
:103940006F81788589859A850E944900DC01CB01C9
:103950009E838D838D819E819A83898389819A81BB
:103960000197F1F79A838983A5E3B0E0E5E3F0E0FE
:1039700080818B7F8C938F852F960FB6F894DEBF56
:103980000FBECDBFCF91DF910895DF93CF93CDB719
:10399000DEB760970FB6F894DEBF0FBECDBF888B41
:1039A0001F86E3E2F0E08889880F8083A3E2B0E01D
:1039B000E3E2F0E080818E7F8C93A6E5B0E0E6E55F
:1039C000F0E080818F7D8C93A6E5B0E0E6E5F0E045
:1039D000808180688C93E6E5F0E080818823DCF7C5
:1039E000E1E2F0E08081882F90E0887F907088315C
:1039F000910519F083E08F8780C0A5E3B0E0E5E38F
:103A0000F0E0808184608C9380E090E0AAEFB4E4E1
:103A10008B879C87AD87BE876B857C858D859E85D2
:103A200020E030E04AE755E40E941F02DC01CB01B0
:103A30008F839887A987BA876F81788589859A85CA
:103A400020E030E040E85FE30E94790388232CF413
:103A500081E090E09E838D833FC06F81788589856A
:103A60009A8520E03FEF4FE757E40E9419031816AC
:103A70004CF56B857C858D859E8520E030E040E2AD
:103A800051E40E941F02DC01CB01BC01CD010E9468
:103A90004900DC01CB019E838D830FC080E991E05A
:103AA0009C838B838B819C810197F1F79C838B8313
:103AB0008D819E8101979E838D838D819E8100974C
:103AC00069F714C06F81788589859A850E944900BD
:103AD000DC01CB019E838D838D819E819A838983B6
:103AE00089819A810197F1F79A838983A5E3B0E0F0
:103AF000E5E3F0E080818B7F8C938F8560960FB635
:103B0000F894DEBF0FBECDBFCF91DF910895DF9354
:103B1000CF93CDB7DEB760970FB6F894DEBF0FBE78
:103B2000CDBF888B1F86E3E2F0E08889880F808311
:103B3000A3E2B0E0E3E2F0E0808181608C93A6E54F
:103B4000B0E0E6E5F0E080818F7D8C93A6E5B0E003
:103B5000E6E5F0E0808180688C93E6E5F0E0808126
:103B60008823DCF7E1E2F0E08081882F90E0887F15
:103B700090708034910519F084E08F8780C0A5E3B0
:103B8000B0E0E5E3F0E0808184608C9380E090E039
:103B9000AAEFB4E48B879C87AD87BE876B857C8555
:103BA0008D859E8520E030E04AE755E40E941F02A3
:103BB000DC01CB018F839887A987BA876F817885CD
:103BC00089859A8520E030E040E85FE30E94790330
:103BD00088232CF481E090E09E838D833FC06F8129
:103BE000788589859A8520E03FEF4FE757E40E946A
:103BF000190318164CF56B857C858D859E8520E014
:103C000030E040E251E40E941F02DC01CB01BC0124
:103C1000CD010E944900DC01CB019E838D830FC042
:103C200080E991E09C838B838B819C810197F1F7E4
:103C30009C838B838D819E8101979E838D838D8153
:103C40009E81009769F714C06F81788589859A8570
:103C50000E944900DC01CB019E838D838D819E8172
:103C60009A83898389819A810197F1F79A8389835D
:103C7000A5E3B0E0E5E3F0E080818B7F8C938F8556
:103C800060960FB6F894DEBF0FBECDBFCF91DF9127
:103C90000895DF93CF93CDB7DEB760970FB6F89452
:103CA000DEBF0FBECDBF888B1F86E3E2F0E08889C0
:103CB0008083A6E5B0E0E6E5F0E0808180688C9343
:103CC000E6E5F0E080818823DCF7E1E2F0E0808146
:103CD000882F90E0887F90708832910519F085E0F8
:103CE0008F8780C0A5E3B0E0E5E3F0E080818460E9
:103CF0008C9380E090E0AAEFB4E48B879C87AD873B
:103D0000BE876B857C858D859E8520E030E04AE707
:103D100055E40E941F02DC01CB018F839887A9879D
:103D2000BA876F81788589859A8520E030E040E800
:103D30005FE30E94790388232CF481E090E09E8366
:103D40008D833FC06F81788589859A8520E03FEF1C
:103D50004FE757E40E94190318164CF56B857C85D4
:103D60008D859E8520E030E040E251E40E941F02F4
:103D7000DC01CB01BC01CD010E944900DC01CB017B
:103D80009E838D830FC080E991E09C838B838B8120
:103D90009C810197F1F79C838B838D819E81019794
:103DA0009E838D838D819E81009769F714C06F81FA
:103DB000788589859A850E944900DC01CB019E8324
:103DC0008D838D819E819A83898389819A810197D0
:103DD000F1F79A838983A5E3B0E0E5E3F0E0808121
:103DE0008B7F8C938F8560960FB6F894DEBF0FBEE5
:103DF000CDBFCF91DF910895DF93CF93CDB7DEB7DD
:103E000061970FB6F894DEBF0FBECDBF998B888B3C
:103E10001F86A6E5B0E0E6E5F0E0808180688C933F
:103E2000E6E5F0E080818823DCF7E1E2F0E08081E4
:103E3000882F90E0887F90708035910519F086E09A
:103E40008F8786C0E3E2F0E08081E889F98980838A
:103E5000A5E3B0E0E5E3F0E0808184608C9380E04E
:103E600090E0AAEFB4E48B879C87AD87BE876B8513
:103E70007C858D859E8520E030E04AE755E40E94F0
:103E80001F02DC01CB018F839887A987BA876F81D6
:103E9000788589859A8520E030E040E85FE30E94DC
:103EA000790388232CF481E090E09E838D833FC0CA
:103EB0006F81788589859A8520E03FEF4FE757E449
:103EC0000E94190318164CF56B857C858D859E859F
:103ED00020E030E040E251E40E941F02DC01CB010F
:103EE000BC01CD010E944900DC01CB019E838D8382
:103EF0000FC080E991E09C838B838B819C8101972B
:103F0000F1F79C838B838D819E8101979E838D83A6
:103F10008D819E81009769F714C06F8178858985AE
:103F20009A850E944900DC01CB019E838D838D819F
:103F30009E819A83898389819A810197F1F79A8377
:103F40008983A5E3B0E0E5E3F0E080818B7F8C938B
:103F50008F8561960FB6F894DEBF0FBECDBFCF91AF
:103F6000DF910895DF93CF93CDB7DEB7A6E5B0E03C
:103F7000E6E5F0E0808180618C93A6E5B0E0E6E5BF
:103F8000F0E0808180688C93CF91DF910895DF937A
:103F9000CF93CDB7DEB7E9E2F0E087E68083AAE20F
:103FA000B0E0EAE2F0E0808180618C93AAE2B0E0C8
:103FB000EAE2F0E080818B7F8C93E0E4F0E086E839
:103FC0008083CF91DF910895DF93CF93CDB7DEB794
:103FD000EBE2F0E080818823DCF7ECE2F0E0808126
:103FE000CF91DF910895DF93CF930F92CDB7DEB7D6
:103FF0008983EBE2F0E08081829586958770882F37
:1040000090E0817090700097A1F3ECE2F0E089817C
:104010008083ECE2F0E090818981981739F4A2E383
:10402000B0E0E2E3F0E0808188608C930F90CF9164
:10403000DF910895DF93CF93CDB7DEB72E970FB6FC
:10404000F894DEBF0FBECDBF80E00E940C1B0E9423
:10405000CA120E947011AAE3B0E0EAE3F0E08081A6
:1040600088608C930E941219A4E3B0E0E4E3F0E0CE
:10407000808181608C93AAE3B0E0EAE3F0E0808184
:1040800084608C930E94541A0E94A30580E090E003
:104090006BE00E94AC1085E090E066E10E94AC10FD
:1040A0008FE291E00E94CF1780E090E0AAE7B4E4AD
:1040B0008B879C87AD87BE876B857C858D859E852C
:1040C00020E030E04AE755E40E941F02DC01CB010A
:1040D0008F839887A987BA876F81788589859A8524
:1040E00020E030E040E85FE30E94790388232CF46D
:1040F00081E090E09E838D833FC06F8178858985C4
:104100009A8520E03FEF4FE757E40E941903181605
:104110004CF56B857C858D859E8520E030E040E206
:1041200051E40E941F02DC01CB01BC01CD010E94C1
:104130004900DC01CB019E838D830FC080E991E0B3
:104140009C838B838B819C810197F1F79C838B836C
:104150008D819E8101979E838D838D819E810097A5
:1041600069F714C06F81788589859A850E94490016
:10417000DC01CB019E838D838D819E819A8389830F
:1041800089819A810197F1F79A8389830E94F817B0
:104190000E94220DFDCFAA1BBB1B51E107C0AA1F25
:1041A000BB1FA617B70710F0A61BB70B881F991FD8
:1041B0005A95A9F780959095BC01CD0108952F924D
:1041C0003F924F925F926F927F928F929F92AF92A7
:1041D000BF92CF92DF92EF92FF920F931F93CF93F4
:1041E000DF93CDB7DEB7CA1BDB0B0FB6F894DEBF8B
:1041F0000FBECDBF09942A88398848885F846E84B1
:104200007D848C849B84AA84B984C884DF80EE80FA
:10421000FD800C811B81AA81B981CE0FD11D0FB603
:10422000F894DEBF0FBECDBFED010895FB01DC01A8
:104230008D91019080190110D9F3990B0895F8948C
:02424000FFCFAE
:10424200313A726F6F6D3120323A726F6F6D320098
:1042520072313A20313A6F6E20323A6F66660072DE
:10426200323A20313A6F6E20323A6F666600313A46
:10427200616320323A646F6F7220333A64696D0071
:10428200646F6F723A20313A6F70656E0064696DC7
:104292006D657220636F6E74726F6C00313A636881
:1042A2006F6F736520726F6F6D00323A6D6F72655A
:1042B20000656E7465722070617373776F7264212A
:1042C2000072696768742070617373776F7264211A
:1042D2000077726F6E672070617373776F726421FB
:1042E200007265656E7465722070617373776F72A8
:1042F200642100626C6F636B206D6F646521003115
:104302003A61646D696E2020323A757365720057A6
:10431200454C434F4D4500000000000000000031B5
:104322003131310032323232002F2A2D2B3D3936D3
:0A43320033303835322537343100BE
:00000001FF
